{
  "_format": "hh-sol-artifact-1",
  "contractName": "ElectionFactoryVoting",
  "sourceName": "contracts/ElectionFactoryVoting.sol",
  "abi": [
    {
      "anonymous": false,
      "inputs": [
        {
          "indexed": true,
          "internalType": "uint256",
          "name": "electionId",
          "type": "uint256"
        },
        {
          "indexed": false,
          "internalType": "uint256",
          "name": "candidateId",
          "type": "uint256"
        },
        {
          "indexed": false,
          "internalType": "string",
          "name": "name",
          "type": "string"
        }
      ],
      "name": "CandidateAdded",
      "type": "event"
    },
    {
      "anonymous": false,
      "inputs": [
        {
          "indexed": true,
          "internalType": "uint256",
          "name": "electionId",
          "type": "uint256"
        },
        {
          "indexed": false,
          "internalType": "address",
          "name": "chairperson",
          "type": "address"
        },
        {
          "indexed": false,
          "internalType": "string",
          "name": "title",
          "type": "string"
        }
      ],
      "name": "ElectionCreated",
      "type": "event"
    },
    {
      "anonymous": false,
      "inputs": [
        {
          "indexed": true,
          "internalType": "uint256",
          "name": "electionId",
          "type": "uint256"
        },
        {
          "indexed": false,
          "internalType": "string",
          "name": "phase",
          "type": "string"
        }
      ],
      "name": "PhaseChanged",
      "type": "event"
    },
    {
      "anonymous": false,
      "inputs": [
        {
          "indexed": true,
          "internalType": "uint256",
          "name": "electionId",
          "type": "uint256"
        },
        {
          "indexed": false,
          "internalType": "uint256",
          "name": "candidateId",
          "type": "uint256"
        }
      ],
      "name": "VoteCast",
      "type": "event"
    },
    {
      "anonymous": false,
      "inputs": [
        {
          "indexed": true,
          "internalType": "uint256",
          "name": "electionId",
          "type": "uint256"
        },
        {
          "indexed": false,
          "internalType": "address",
          "name": "voter",
          "type": "address"
        }
      ],
      "name": "VoterRegistered",
      "type": "event"
    },
    {
      "inputs": [
        {
          "internalType": "uint256",
          "name": "_electionId",
          "type": "uint256"
        },
        {
          "internalType": "address",
          "name": "_voter",
          "type": "address"
        }
      ],
      "name": "ApproveVoter",
      "outputs": [],
      "stateMutability": "nonpayable",
      "type": "function"
    },
    {
      "inputs": [
        {
          "internalType": "uint256",
          "name": "_electionId",
          "type": "uint256"
        },
        {
          "internalType": "string",
          "name": "_name",
          "type": "string"
        },
        {
          "internalType": "string",
          "name": "_symbol",
          "type": "string"
        },
        {
          "internalType": "string",
          "name": "_manifestoCID",
          "type": "string"
        }
      ],
      "name": "addCandidate",
      "outputs": [],
      "stateMutability": "nonpayable",
      "type": "function"
    },
    {
      "inputs": [
        {
          "internalType": "string",
          "name": "_title",
          "type": "string"
        },
        {
          "internalType": "string",
          "name": "_code",
          "type": "string"
        },
        {
          "internalType": "bool",
          "name": "_isPublic",
          "type": "bool"
        },
        {
          "internalType": "string",
          "name": "_description",
          "type": "string"
        },
        {
          "internalType": "string",
          "name": "_category",
          "type": "string"
        },
        {
          "internalType": "string",
          "name": "_imageCID",
          "type": "string"
        }
      ],
      "name": "createElection",
      "outputs": [],
      "stateMutability": "nonpayable",
      "type": "function"
    },
    {
      "inputs": [],
      "name": "electionCount",
      "outputs": [
        {
          "internalType": "uint256",
          "name": "",
          "type": "uint256"
        }
      ],
      "stateMutability": "view",
      "type": "function"
    },
    {
      "inputs": [
        {
          "internalType": "uint256",
          "name": "_electionId",
          "type": "uint256"
        }
      ],
      "name": "endVoting",
      "outputs": [],
      "stateMutability": "nonpayable",
      "type": "function"
    },
    {
      "inputs": [
        {
          "internalType": "address",
          "name": "user",
          "type": "address"
        }
      ],
      "name": "getAllUserAndPublicElections",
      "outputs": [
        {
          "components": [
            {
              "internalType": "uint256",
              "name": "id",
              "type": "uint256"
            },
            {
              "internalType": "string",
              "name": "title",
              "type": "string"
            },
            {
              "internalType": "string",
              "name": "description",
              "type": "string"
            },
            {
              "internalType": "string",
              "name": "category",
              "type": "string"
            },
            {
              "internalType": "string",
              "name": "publicCode",
              "type": "string"
            },
            {
              "internalType": "string",
              "name": "phase",
              "type": "string"
            },
            {
              "internalType": "address",
              "name": "chairperson",
              "type": "address"
            }
          ],
          "internalType": "struct ElectionFactoryVoting.ElectionSummary[]",
          "name": "",
          "type": "tuple[]"
        }
      ],
      "stateMutability": "view",
      "type": "function"
    },
    {
      "inputs": [
        {
          "internalType": "uint256",
          "name": "_electionId",
          "type": "uint256"
        },
        {
          "internalType": "uint256",
          "name": "_candidateId",
          "type": "uint256"
        }
      ],
      "name": "getCandidate",
      "outputs": [
        {
          "internalType": "string",
          "name": "name",
          "type": "string"
        },
        {
          "internalType": "string",
          "name": "manifestoCID",
          "type": "string"
        },
        {
          "internalType": "string",
          "name": "symbol",
          "type": "string"
        },
        {
          "internalType": "uint256",
          "name": "voteCount",
          "type": "uint256"
        }
      ],
      "stateMutability": "view",
      "type": "function"
    },
    {
      "inputs": [
        {
          "internalType": "uint256",
          "name": "_electionId",
          "type": "uint256"
        }
      ],
      "name": "getCandidates",
      "outputs": [
        {
          "components": [
            {
              "internalType": "string",
              "name": "name",
              "type": "string"
            },
            {
              "internalType": "string",
              "name": "symbol",
              "type": "string"
            },
            {
              "internalType": "string",
              "name": "manifestoCID",
              "type": "string"
            },
            {
              "internalType": "uint256",
              "name": "voteCount",
              "type": "uint256"
            }
          ],
          "internalType": "struct ElectionFactoryVoting.Candidate[]",
          "name": "",
          "type": "tuple[]"
        }
      ],
      "stateMutability": "view",
      "type": "function"
    },
    {
      "inputs": [
        {
          "internalType": "uint256",
          "name": "_electionId",
          "type": "uint256"
        }
      ],
      "name": "getElectionInfo",
      "outputs": [
        {
          "internalType": "string",
          "name": "title",
          "type": "string"
        },
        {
          "internalType": "string",
          "name": "code",
          "type": "string"
        },
        {
          "internalType": "address",
          "name": "chairperson",
          "type": "address"
        },
        {
          "internalType": "string",
          "name": "imageCID",
          "type": "string"
        },
        {
          "internalType": "string",
          "name": "phase",
          "type": "string"
        },
        {
          "internalType": "uint256",
          "name": "numCandidates",
          "type": "uint256"
        }
      ],
      "stateMutability": "view",
      "type": "function"
    },
    {
      "inputs": [
        {
          "internalType": "uint256",
          "name": "_electionId",
          "type": "uint256"
        }
      ],
      "name": "getVoterRequests",
      "outputs": [
        {
          "internalType": "address[]",
          "name": "",
          "type": "address[]"
        }
      ],
      "stateMutability": "view",
      "type": "function"
    },
    {
      "inputs": [
        {
          "internalType": "uint256",
          "name": "_electionId",
          "type": "uint256"
        }
      ],
      "name": "getWinner",
      "outputs": [
        {
          "internalType": "string",
          "name": "name",
          "type": "string"
        },
        {
          "internalType": "uint256",
          "name": "voteCount",
          "type": "uint256"
        }
      ],
      "stateMutability": "view",
      "type": "function"
    },
    {
      "inputs": [
        {
          "internalType": "uint256",
          "name": "_electionId",
          "type": "uint256"
        },
        {
          "internalType": "address",
          "name": "_addr",
          "type": "address"
        }
      ],
      "name": "hasUserVoted",
      "outputs": [
        {
          "internalType": "bool",
          "name": "",
          "type": "bool"
        }
      ],
      "stateMutability": "view",
      "type": "function"
    },
    {
      "inputs": [
        {
          "internalType": "string",
          "name": "_code",
          "type": "string"
        }
      ],
      "name": "isPublicCodeTaken",
      "outputs": [
        {
          "internalType": "bool",
          "name": "",
          "type": "bool"
        }
      ],
      "stateMutability": "view",
      "type": "function"
    },
    {
      "inputs": [
        {
          "internalType": "uint256",
          "name": "_electionId",
          "type": "uint256"
        },
        {
          "internalType": "address",
          "name": "_addr",
          "type": "address"
        }
      ],
      "name": "isVoterRegistered",
      "outputs": [
        {
          "internalType": "bool",
          "name": "",
          "type": "bool"
        }
      ],
      "stateMutability": "view",
      "type": "function"
    },
    {
      "inputs": [
        {
          "internalType": "uint256",
          "name": "_electionId",
          "type": "uint256"
        },
        {
          "internalType": "address",
          "name": "_voter",
          "type": "address"
        }
      ],
      "name": "registerVoter",
      "outputs": [],
      "stateMutability": "nonpayable",
      "type": "function"
    },
    {
      "inputs": [
        {
          "internalType": "uint256",
          "name": "_electionId",
          "type": "uint256"
        }
      ],
      "name": "requestToVote",
      "outputs": [],
      "stateMutability": "nonpayable",
      "type": "function"
    },
    {
      "inputs": [
        {
          "internalType": "uint256",
          "name": "_electionId",
          "type": "uint256"
        }
      ],
      "name": "startVoting",
      "outputs": [],
      "stateMutability": "nonpayable",
      "type": "function"
    },
    {
      "inputs": [
        {
          "internalType": "uint256",
          "name": "_electionId",
          "type": "uint256"
        },
        {
          "internalType": "uint256",
          "name": "_candidateId",
          "type": "uint256"
        }
      ],
      "name": "vote",
      "outputs": [],
      "stateMutability": "nonpayable",
      "type": "function"
    }
  ],
  "bytecode": "0x608060405234801561001057600080fd5b5061475f806100206000396000f3fe608060405234801561001057600080fd5b50600436106101165760003560e01c80639050b385116100a2578063b384abef11610071578063b384abef14610305578063ce4a274314610321578063ce99b5df1461033d578063dc296ae114610372578063f95195d4146103a257610116565b80639050b3851461029357806394c790bb146102af57806394e37bfe146102cb578063997d2830146102e757610116565b80634129b2c9116100e95780634129b2c9146101b357806349be2053146101e45780634bd4644814610214578063649f89a5146102475780637d69ee711461026357610116565b8063266bc73c1461011b578063394eaa8f146101375780633d2f5bda146101675780633e39a7a514610183575b600080fd5b610135600480360381019061013091906130c3565b6103d2565b005b610151600480360381019061014c9190613270565b610742565b60405161015e91906132bf565b60405180910390f35b610181600480360381019061017c91906132da565b6107ad565b005b61019d600480360381019061019891906132da565b6109c1565b6040516101aa91906134c8565b60405180910390f35b6101cd60048036038101906101c891906132da565b610c61565b6040516101db929190613543565b60405180910390f35b6101fe60048036038101906101f991906132da565b610e25565b60405161020b9190613631565b60405180910390f35b61022e60048036038101906102299190613653565b610f6f565b60405161023e9493929190613693565b60405180910390f35b610261600480360381019061025c91906132da565b6111c0565b005b61027d600480360381019061027891906136ed565b6113d3565b60405161028a9190613894565b60405180910390f35b6102ad60048036038101906102a89190613270565b611989565b005b6102c960048036038101906102c49190613270565b611eaf565b005b6102e560048036038101906102e091906132da565b612209565b005b6102ef61254e565b6040516102fc91906138b6565b60405180910390f35b61031f600480360381019061031a9190613653565b612554565b005b61033b600480360381019061033691906138d1565b612821565b005b610357600480360381019061035291906132da565b612ad9565b6040516103699695949392919061399b565b60405180910390f35b61038c60048036038101906103879190613270565b612e16565b60405161039991906132bf565b60405180910390f35b6103bc60048036038101906103b79190613a18565b612e81565b6040516103c991906132bf565b60405180910390f35b6003856040516103e29190613a9d565b908152602001604051809103902060009054906101000a900460ff161561043e576040517f08c379a000000000000000000000000000000000000000000000000000000000815260040161043590613b00565b60405180910390fd5b60016003866040516104509190613a9d565b908152602001604051809103902060006101000a81548160ff02191690831515021790555060006001600081548092919061048a90613b4f565b9190505590506000600260008381526020019081526020016000209050338160000160006101000a81548173ffffffffffffffffffffffffffffffffffffffff021916908373ffffffffffffffffffffffffffffffffffffffff160217905550878160010190816104fb9190613da3565b508681600401908161050d9190613da3565b50858160060160006101000a81548160ff0219169083151502179055508481600201908161053b9190613da3565b508381600301908161054d9190613da3565b508281600501908161055f9190613da3565b5060008160060160016101000a81548160ff0219169083600281111561058857610587613e75565b5b0217905550817f0899cd1399cb5255769838bb5633e6d9fc0b49629382ae5b27bbaebd44d31870338a6040516105bf929190613ea4565b60405180910390a285156107385760006040518060e001604052808481526020018a81526020018781526020018681526020018981526020016040518060400160405280600c81526020017f526567697374726174696f6e000000000000000000000000000000000000000081525081526020013373ffffffffffffffffffffffffffffffffffffffff1681525090806001815401808255809150506001900390600052602060002090600702016000909190919091506000820151816000015560208201518160010190816106959190613da3565b5060408201518160020190816106ab9190613da3565b5060608201518160030190816106c19190613da3565b5060808201518160040190816106d79190613da3565b5060a08201518160050190816106ed9190613da3565b5060c08201518160060160006101000a81548173ffffffffffffffffffffffffffffffffffffffff021916908373ffffffffffffffffffffffffffffffffffffffff16021790555050505b5050505050505050565b60006002600084815260200190815260200160002060090160008373ffffffffffffffffffffffffffffffffffffffff1673ffffffffffffffffffffffffffffffffffffffff16815260200190815260200160002060009054906101000a900460ff16905092915050565b806002600082815260200190815260200160002060000160009054906101000a900473ffffffffffffffffffffffffffffffffffffffff1673ffffffffffffffffffffffffffffffffffffffff163373ffffffffffffffffffffffffffffffffffffffff1614610852576040517f08c379a000000000000000000000000000000000000000000000000000000000815260040161084990613f20565b60405180910390fd5b81600080600281111561086857610867613e75565b5b6002600084815260200190815260200160002060060160019054906101000a900460ff16600281111561089e5761089d613e75565b5b146108de576040517f08c379a00000000000000000000000000000000000000000000000000000000081526004016108d590613f8c565b60405180910390fd5b60016002600086815260200190815260200160002060060160016101000a81548160ff0219169083600281111561091857610917613e75565b5b02179055506040518060400160405280600681526020017f566f74696e6700000000000000000000000000000000000000000000000000008152506000858154811061096757610966613fac565b5b906000526020600020906007020160050190816109849190613da3565b50837f5ea115dcb736498e528a9ed962d7b5c11744420bb41e4b92bf413671662854dc6040516109b390614027565b60405180910390a250505050565b606060006002600084815260200190815260200160002090506000816007015467ffffffffffffffff8111156109fa576109f9612f60565b5b604051908082528060200260200182016040528015610a3357816020015b610a20612eb6565b815260200190600190039081610a185790505b50905060005b8260070154811015610c5657826008016000828152602001908152602001600020604051806080016040529081600082018054610a7590613bc6565b80601f0160208091040260200160405190810160405280929190818152602001828054610aa190613bc6565b8015610aee5780601f10610ac357610100808354040283529160200191610aee565b820191906000526020600020905b815481529060010190602001808311610ad157829003601f168201915b50505050508152602001600182018054610b0790613bc6565b80601f0160208091040260200160405190810160405280929190818152602001828054610b3390613bc6565b8015610b805780601f10610b5557610100808354040283529160200191610b80565b820191906000526020600020905b815481529060010190602001808311610b6357829003601f168201915b50505050508152602001600282018054610b9990613bc6565b80601f0160208091040260200160405190810160405280929190818152602001828054610bc590613bc6565b8015610c125780601f10610be757610100808354040283529160200191610c12565b820191906000526020600020905b815481529060010190602001808311610bf557829003601f168201915b50505050508152602001600382015481525050828281518110610c3857610c37613fac565b5b60200260200101819052508080610c4e90613b4f565b915050610a39565b508092505050919050565b60606000600280811115610c7857610c77613e75565b5b6002600085815260200190815260200160002060060160019054906101000a900460ff166002811115610cae57610cad613e75565b5b14610cee576040517f08c379a0000000000000000000000000000000000000000000000000000000008152600401610ce590614093565b60405180910390fd5b600060026000858152602001908152602001600020905060008060005b8360070154811015610d695782846008016000838152602001908152602001600020600301541115610d56578360080160008281526020019081526020016000206003015492508091505b8080610d6190613b4f565b915050610d0b565b5060008360080160008381526020019081526020016000209050806000018160030154818054610d9890613bc6565b80601f0160208091040260200160405190810160405280929190818152602001828054610dc490613bc6565b8015610e115780601f10610de657610100808354040283529160200191610e11565b820191906000526020600020905b815481529060010190602001808311610df457829003601f168201915b505050505091509550955050505050915091565b6060816002600082815260200190815260200160002060000160009054906101000a900473ffffffffffffffffffffffffffffffffffffffff1673ffffffffffffffffffffffffffffffffffffffff163373ffffffffffffffffffffffffffffffffffffffff1614610ecc576040517f08c379a0000000000000000000000000000000000000000000000000000000008152600401610ec390613f20565b60405180910390fd5b60026000848152602001908152602001600020600b01805480602002602001604051908101604052809291908181526020018280548015610f6257602002820191906000526020600020905b8160009054906101000a900473ffffffffffffffffffffffffffffffffffffffff1673ffffffffffffffffffffffffffffffffffffffff1681526020019060010190808311610f18575b5050505050915050919050565b6060806060600060026000878152602001908152602001600020600701548510610fce576040517f08c379a0000000000000000000000000000000000000000000000000000000008152600401610fc5906140ff565b60405180910390fd5b60006002600088815260200190815260200160002060080160008781526020019081526020016000209050806000018160020182600101836003015483805461101690613bc6565b80601f016020809104026020016040519081016040528092919081815260200182805461104290613bc6565b801561108f5780601f106110645761010080835404028352916020019161108f565b820191906000526020600020905b81548152906001019060200180831161107257829003601f168201915b505050505093508280546110a290613bc6565b80601f01602080910402602001604051908101604052809291908181526020018280546110ce90613bc6565b801561111b5780601f106110f05761010080835404028352916020019161111b565b820191906000526020600020905b8154815290600101906020018083116110fe57829003601f168201915b5050505050925081805461112e90613bc6565b80601f016020809104026020016040519081016040528092919081815260200182805461115a90613bc6565b80156111a75780601f1061117c576101008083540402835291602001916111a7565b820191906000526020600020905b81548152906001019060200180831161118a57829003601f168201915b5050505050915094509450945094505092959194509250565b806002600082815260200190815260200160002060000160009054906101000a900473ffffffffffffffffffffffffffffffffffffffff1673ffffffffffffffffffffffffffffffffffffffff163373ffffffffffffffffffffffffffffffffffffffff1614611265576040517f08c379a000000000000000000000000000000000000000000000000000000000815260040161125c90613f20565b60405180910390fd5b81600180600281111561127b5761127a613e75565b5b6002600084815260200190815260200160002060060160019054906101000a900460ff1660028111156112b1576112b0613e75565b5b146112f1576040517f08c379a00000000000000000000000000000000000000000000000000000000081526004016112e890613f8c565b60405180910390fd5b600280600086815260200190815260200160002060060160016101000a81548160ff0219169083600281111561132a57611329613e75565b5b02179055506040518060400160405280600581526020017f456e6465640000000000000000000000000000000000000000000000000000008152506000858154811061137957611378613fac565b5b906000526020600020906007020160050190816113969190613da3565b50837f5ea115dcb736498e528a9ed962d7b5c11744420bb41e4b92bf413671662854dc6040516113c59061416b565b60405180910390a250505050565b6060600060015467ffffffffffffffff8111156113f3576113f2612f60565b5b60405190808252806020026020018201604052801561142c57816020015b611419612ede565b8152602001906001900390816114115790505b5090506000805b6001548110156118cd5760006002600083815260200190815260200160002090508060060160009054906101000a900460ff16806114c057508573ffffffffffffffffffffffffffffffffffffffff168160000160009054906101000a900473ffffffffffffffffffffffffffffffffffffffff1673ffffffffffffffffffffffffffffffffffffffff16145b156118b95760008060028111156114da576114d9613e75565b5b8260060160019054906101000a900460ff1660028111156114fe576114fd613e75565b5b146115b7576001600281111561151757611516613e75565b5b8260060160019054906101000a900460ff16600281111561153b5761153a613e75565b5b1461157b576040518060400160405280600581526020017f456e6465640000000000000000000000000000000000000000000000000000008152506115b2565b6040518060400160405280600681526020017f566f74696e6700000000000000000000000000000000000000000000000000008152505b6115ee565b6040518060400160405280600c81526020017f526567697374726174696f6e00000000000000000000000000000000000000008152505b90506040518060e0016040528084815260200183600101805461161090613bc6565b80601f016020809104026020016040519081016040528092919081815260200182805461163c90613bc6565b80156116895780601f1061165e57610100808354040283529160200191611689565b820191906000526020600020905b81548152906001019060200180831161166c57829003601f168201915b505050505081526020018360020180546116a290613bc6565b80601f01602080910402602001604051908101604052809291908181526020018280546116ce90613bc6565b801561171b5780601f106116f05761010080835404028352916020019161171b565b820191906000526020600020905b8154815290600101906020018083116116fe57829003601f168201915b5050505050815260200183600301805461173490613bc6565b80601f016020809104026020016040519081016040528092919081815260200182805461176090613bc6565b80156117ad5780601f10611782576101008083540402835291602001916117ad565b820191906000526020600020905b81548152906001019060200180831161179057829003601f168201915b505050505081526020018360040180546117c690613bc6565b80601f01602080910402602001604051908101604052809291908181526020018280546117f290613bc6565b801561183f5780601f106118145761010080835404028352916020019161183f565b820191906000526020600020905b81548152906001019060200180831161182257829003601f168201915b505050505081526020018281526020018360000160009054906101000a900473ffffffffffffffffffffffffffffffffffffffff1673ffffffffffffffffffffffffffffffffffffffff1681525085858061189990613b4f565b9650815181106118ac576118ab613fac565b5b6020026020010181905250505b5080806118c590613b4f565b915050611433565b5060008167ffffffffffffffff8111156118ea576118e9612f60565b5b60405190808252806020026020018201604052801561192357816020015b611910612ede565b8152602001906001900390816119085790505b50905060005b8281101561197d5783818151811061194457611943613fac565b5b602002602001015182828151811061195f5761195e613fac565b5b6020026020010181905250808061197590613b4f565b915050611929565b50809350505050919050565b816002600082815260200190815260200160002060000160009054906101000a900473ffffffffffffffffffffffffffffffffffffffff1673ffffffffffffffffffffffffffffffffffffffff163373ffffffffffffffffffffffffffffffffffffffff1614611a2e576040517f08c379a0000000000000000000000000000000000000000000000000000000008152600401611a2590613f20565b60405180910390fd5b826000806002811115611a4457611a43613e75565b5b6002600084815260200190815260200160002060060160019054906101000a900460ff166002811115611a7a57611a79613e75565b5b14611aba576040517f08c379a0000000000000000000000000000000000000000000000000000000008152600401611ab190613f8c565b60405180910390fd5b6002600086815260200190815260200160002060090160008573ffffffffffffffffffffffffffffffffffffffff1673ffffffffffffffffffffffffffffffffffffffff16815260200190815260200160002060009054906101000a900460ff1615611b5b576040517f08c379a0000000000000000000000000000000000000000000000000000000008152600401611b52906141d7565b60405180910390fd5b6002600086815260200190815260200160002060000160009054906101000a900473ffffffffffffffffffffffffffffffffffffffff1673ffffffffffffffffffffffffffffffffffffffff168473ffffffffffffffffffffffffffffffffffffffff1603611bff576040517f08c379a0000000000000000000000000000000000000000000000000000000008152600401611bf690614269565b60405180910390fd5b60016002600087815260200190815260200160002060090160008673ffffffffffffffffffffffffffffffffffffffff1673ffffffffffffffffffffffffffffffffffffffff16815260200190815260200160002060006101000a81548160ff02191690831515021790555060005b60026000878152602001908152602001600020600b0180549050811015611e6f578473ffffffffffffffffffffffffffffffffffffffff1660026000888152602001908152602001600020600b018281548110611cce57611ccd613fac565b5b9060005260206000200160009054906101000a900473ffffffffffffffffffffffffffffffffffffffff1673ffffffffffffffffffffffffffffffffffffffff1603611e5c5760026000878152602001908152602001600020600b01600160026000898152602001908152602001600020600b0180549050611d509190614289565b81548110611d6157611d60613fac565b5b9060005260206000200160009054906101000a900473ffffffffffffffffffffffffffffffffffffffff1660026000888152602001908152602001600020600b018281548110611db457611db3613fac565b5b9060005260206000200160006101000a81548173ffffffffffffffffffffffffffffffffffffffff021916908373ffffffffffffffffffffffffffffffffffffffff16021790555060026000878152602001908152602001600020600b01805480611e2257611e216142bd565b5b6001900381819060005260206000200160006101000a81549073ffffffffffffffffffffffffffffffffffffffff02191690559055611e6f565b8080611e6790613b4f565b915050611c6e565b50847ff45b8429c36d478f9a6d081c4811a819b98aa5b608588bed9d406405cf28247385604051611ea091906142ec565b60405180910390a25050505050565b816002600082815260200190815260200160002060000160009054906101000a900473ffffffffffffffffffffffffffffffffffffffff1673ffffffffffffffffffffffffffffffffffffffff163373ffffffffffffffffffffffffffffffffffffffff1614611f54576040517f08c379a0000000000000000000000000000000000000000000000000000000008152600401611f4b90613f20565b60405180910390fd5b826000806002811115611f6a57611f69613e75565b5b6002600084815260200190815260200160002060060160019054906101000a900460ff166002811115611fa057611f9f613e75565b5b14611fe0576040517f08c379a0000000000000000000000000000000000000000000000000000000008152600401611fd790613f8c565b60405180910390fd5b600073ffffffffffffffffffffffffffffffffffffffff168473ffffffffffffffffffffffffffffffffffffffff160361204f576040517f08c379a000000000000000000000000000000000000000000000000000000000815260040161204690614353565b60405180910390fd5b6002600086815260200190815260200160002060090160008573ffffffffffffffffffffffffffffffffffffffff1673ffffffffffffffffffffffffffffffffffffffff16815260200190815260200160002060009054906101000a900460ff16156120f0576040517f08c379a00000000000000000000000000000000000000000000000000000000081526004016120e7906141d7565b60405180910390fd5b3373ffffffffffffffffffffffffffffffffffffffff168473ffffffffffffffffffffffffffffffffffffffff160361215e576040517f08c379a0000000000000000000000000000000000000000000000000000000008152600401612155906143e5565b60405180910390fd5b60016002600087815260200190815260200160002060090160008673ffffffffffffffffffffffffffffffffffffffff1673ffffffffffffffffffffffffffffffffffffffff16815260200190815260200160002060006101000a81548160ff021916908315150217905550847ff45b8429c36d478f9a6d081c4811a819b98aa5b608588bed9d406405cf282473856040516121fa91906142ec565b60405180910390a25050505050565b80600080600281111561221f5761221e613e75565b5b6002600084815260200190815260200160002060060160019054906101000a900460ff16600281111561225557612254613e75565b5b14612295576040517f08c379a000000000000000000000000000000000000000000000000000000000815260040161228c90613f8c565b60405180910390fd5b6002600084815260200190815260200160002060090160003373ffffffffffffffffffffffffffffffffffffffff1673ffffffffffffffffffffffffffffffffffffffff16815260200190815260200160002060009054906101000a900460ff1615612336576040517f08c379a000000000000000000000000000000000000000000000000000000000815260040161232d906141d7565b60405180910390fd5b6002600084815260200190815260200160002060000160009054906101000a900473ffffffffffffffffffffffffffffffffffffffff1673ffffffffffffffffffffffffffffffffffffffff163373ffffffffffffffffffffffffffffffffffffffff16036123da576040517f08c379a00000000000000000000000000000000000000000000000000000000081526004016123d190614451565b60405180910390fd5b60005b60026000858152602001908152602001600020600b01805490508110156124d1573373ffffffffffffffffffffffffffffffffffffffff1660026000868152602001908152602001600020600b01828154811061243d5761243c613fac565b5b9060005260206000200160009054906101000a900473ffffffffffffffffffffffffffffffffffffffff1673ffffffffffffffffffffffffffffffffffffffff16036124be576040517f08c379a00000000000000000000000000000000000000000000000000000000081526004016124b5906144bd565b60405180910390fd5b80806124c990613b4f565b9150506123dd565b5060026000848152602001908152602001600020600b01339080600181540180825580915050600190039060005260206000200160009091909190916101000a81548173ffffffffffffffffffffffffffffffffffffffff021916908373ffffffffffffffffffffffffffffffffffffffff160217905550505050565b60015481565b81600180600281111561256a57612569613e75565b5b6002600084815260200190815260200160002060060160019054906101000a900460ff1660028111156125a05761259f613e75565b5b146125e0576040517f08c379a00000000000000000000000000000000000000000000000000000000081526004016125d790613f8c565b60405180910390fd5b60006002600086815260200190815260200160002090508060090160003373ffffffffffffffffffffffffffffffffffffffff1673ffffffffffffffffffffffffffffffffffffffff16815260200190815260200160002060009054906101000a900460ff16612685576040517f08c379a000000000000000000000000000000000000000000000000000000000815260040161267c90614529565b60405180910390fd5b80600a0160003373ffffffffffffffffffffffffffffffffffffffff1673ffffffffffffffffffffffffffffffffffffffff16815260200190815260200160002060009054906101000a900460ff1615612714576040517f08c379a000000000000000000000000000000000000000000000000000000000815260040161270b90614595565b60405180910390fd5b8060070154841061275a576040517f08c379a000000000000000000000000000000000000000000000000000000000815260040161275190614601565b60405180910390fd5b806008016000858152602001908152602001600020600301600081548092919061278390613b4f565b9190505550600181600a0160003373ffffffffffffffffffffffffffffffffffffffff1673ffffffffffffffffffffffffffffffffffffffff16815260200190815260200160002060006101000a81548160ff021916908315150217905550847fc31875ef3ed5138b71a0c1da7e494bc4d2ba4f567084ea481ec9c45f3a93948b8560405161281291906138b6565b60405180910390a25050505050565b836002600082815260200190815260200160002060000160009054906101000a900473ffffffffffffffffffffffffffffffffffffffff1673ffffffffffffffffffffffffffffffffffffffff163373ffffffffffffffffffffffffffffffffffffffff16146128c6576040517f08c379a00000000000000000000000000000000000000000000000000000000081526004016128bd90613f20565b60405180910390fd5b8460008060028111156128dc576128db613e75565b5b6002600084815260200190815260200160002060060160019054906101000a900460ff16600281111561291257612911613e75565b5b14612952576040517f08c379a000000000000000000000000000000000000000000000000000000000815260040161294990613f8c565b60405180910390fd5b6000865111612996576040517f08c379a000000000000000000000000000000000000000000000000000000000815260040161298d9061466d565b60405180910390fd5b60008551116129da576040517f08c379a00000000000000000000000000000000000000000000000000000000081526004016129d1906146d9565b60405180910390fd5b60006002600089815260200190815260200160002090506000816007016000815480929190612a0890613b4f565b919050559050604051806080016040528089815260200188815260200187815260200160008152508260080160008381526020019081526020016000206000820151816000019081612a5a9190613da3565b506020820151816001019081612a709190613da3565b506040820151816002019081612a869190613da3565b5060608201518160030155905050887fed8911b3df733b7d5f75724158e54478ea12e30f49c9d31b5261879f5b76586f828a604051612ac69291906146f9565b60405180910390a2505050505050505050565b60608060006060806000806002600089815260200190815260200160002090506000806002811115612b0e57612b0d613e75565b5b8260060160019054906101000a900460ff166002811115612b3257612b31613e75565b5b14612beb5760016002811115612b4b57612b4a613e75565b5b8260060160019054906101000a900460ff166002811115612b6f57612b6e613e75565b5b14612baf576040518060400160405280600581526020017f456e646564000000000000000000000000000000000000000000000000000000815250612be6565b6040518060400160405280600681526020017f566f74696e6700000000000000000000000000000000000000000000000000008152505b612c22565b6040518060400160405280600c81526020017f526567697374726174696f6e00000000000000000000000000000000000000008152505b905081600101826004018360000160009054906101000a900473ffffffffffffffffffffffffffffffffffffffff1684600501848660070154858054612c6790613bc6565b80601f0160208091040260200160405190810160405280929190818152602001828054612c9390613bc6565b8015612ce05780601f10612cb557610100808354040283529160200191612ce0565b820191906000526020600020905b815481529060010190602001808311612cc357829003601f168201915b50505050509550848054612cf390613bc6565b80601f0160208091040260200160405190810160405280929190818152602001828054612d1f90613bc6565b8015612d6c5780601f10612d4157610100808354040283529160200191612d6c565b820191906000526020600020905b815481529060010190602001808311612d4f57829003601f168201915b50505050509450828054612d7f90613bc6565b80601f0160208091040260200160405190810160405280929190818152602001828054612dab90613bc6565b8015612df85780601f10612dcd57610100808354040283529160200191612df8565b820191906000526020600020905b815481529060010190602001808311612ddb57829003601f168201915b50505050509250975097509750975097509750505091939550919395565b600060026000848152602001908152602001600020600a0160008373ffffffffffffffffffffffffffffffffffffffff1673ffffffffffffffffffffffffffffffffffffffff16815260200190815260200160002060009054906101000a900460ff16905092915050565b6000600382604051612e939190613a9d565b908152602001604051809103902060009054906101000a900460ff169050919050565b6040518060800160405280606081526020016060815260200160608152602001600081525090565b6040518060e00160405280600081526020016060815260200160608152602001606081526020016060815260200160608152602001600073ffffffffffffffffffffffffffffffffffffffff1681525090565b6000604051905090565b600080fd5b600080fd5b600080fd5b600080fd5b6000601f19601f8301169050919050565b7f4e487b7100000000000000000000000000000000000000000000000000000000600052604160045260246000fd5b612f9882612f4f565b810181811067ffffffffffffffff82111715612fb757612fb6612f60565b5b80604052505050565b6000612fca612f31565b9050612fd68282612f8f565b919050565b600067ffffffffffffffff821115612ff657612ff5612f60565b5b612fff82612f4f565b9050602081019050919050565b82818337600083830152505050565b600061302e61302984612fdb565b612fc0565b90508281526020810184848401111561304a57613049612f4a565b5b61305584828561300c565b509392505050565b600082601f83011261307257613071612f45565b5b813561308284826020860161301b565b91505092915050565b60008115159050919050565b6130a08161308b565b81146130ab57600080fd5b50565b6000813590506130bd81613097565b92915050565b60008060008060008060c087890312156130e0576130df612f3b565b5b600087013567ffffffffffffffff8111156130fe576130fd612f40565b5b61310a89828a0161305d565b965050602087013567ffffffffffffffff81111561312b5761312a612f40565b5b61313789828a0161305d565b955050604061314889828a016130ae565b945050606087013567ffffffffffffffff81111561316957613168612f40565b5b61317589828a0161305d565b935050608087013567ffffffffffffffff81111561319657613195612f40565b5b6131a289828a0161305d565b92505060a087013567ffffffffffffffff8111156131c3576131c2612f40565b5b6131cf89828a0161305d565b9150509295509295509295565b6000819050919050565b6131ef816131dc565b81146131fa57600080fd5b50565b60008135905061320c816131e6565b92915050565b600073ffffffffffffffffffffffffffffffffffffffff82169050919050565b600061323d82613212565b9050919050565b61324d81613232565b811461325857600080fd5b50565b60008135905061326a81613244565b92915050565b6000806040838503121561328757613286612f3b565b5b6000613295858286016131fd565b92505060206132a68582860161325b565b9150509250929050565b6132b98161308b565b82525050565b60006020820190506132d460008301846132b0565b92915050565b6000602082840312156132f0576132ef612f3b565b5b60006132fe848285016131fd565b91505092915050565b600081519050919050565b600082825260208201905092915050565b6000819050602082019050919050565b600081519050919050565b600082825260208201905092915050565b60005b8381101561336d578082015181840152602081019050613352565b60008484015250505050565b600061338482613333565b61338e818561333e565b935061339e81856020860161334f565b6133a781612f4f565b840191505092915050565b6133bb816131dc565b82525050565b600060808301600083015184820360008601526133de8282613379565b915050602083015184820360208601526133f88282613379565b915050604083015184820360408601526134128282613379565b915050606083015161342760608601826133b2565b508091505092915050565b600061343e83836133c1565b905092915050565b6000602082019050919050565b600061345e82613307565b6134688185613312565b93508360208202850161347a85613323565b8060005b858110156134b657848403895281516134978582613432565b94506134a283613446565b925060208a0199505060018101905061347e565b50829750879550505050505092915050565b600060208201905081810360008301526134e28184613453565b905092915050565b600082825260208201905092915050565b600061350682613333565b61351081856134ea565b935061352081856020860161334f565b61352981612f4f565b840191505092915050565b61353d816131dc565b82525050565b6000604082019050818103600083015261355d81856134fb565b905061356c6020830184613534565b9392505050565b600081519050919050565b600082825260208201905092915050565b6000819050602082019050919050565b6135a881613232565b82525050565b60006135ba838361359f565b60208301905092915050565b6000602082019050919050565b60006135de82613573565b6135e8818561357e565b93506135f38361358f565b8060005b8381101561362457815161360b88826135ae565b9750613616836135c6565b9250506001810190506135f7565b5085935050505092915050565b6000602082019050818103600083015261364b81846135d3565b905092915050565b6000806040838503121561366a57613669612f3b565b5b6000613678858286016131fd565b9250506020613689858286016131fd565b9150509250929050565b600060808201905081810360008301526136ad81876134fb565b905081810360208301526136c181866134fb565b905081810360408301526136d581856134fb565b90506136e46060830184613534565b95945050505050565b60006020828403121561370357613702612f3b565b5b60006137118482850161325b565b91505092915050565b600081519050919050565b600082825260208201905092915050565b6000819050602082019050919050565b600060e08301600083015161375e60008601826133b2565b50602083015184820360208601526137768282613379565b915050604083015184820360408601526137908282613379565b915050606083015184820360608601526137aa8282613379565b915050608083015184820360808601526137c48282613379565b91505060a083015184820360a08601526137de8282613379565b91505060c08301516137f360c086018261359f565b508091505092915050565b600061380a8383613746565b905092915050565b6000602082019050919050565b600061382a8261371a565b6138348185613725565b93508360208202850161384685613736565b8060005b85811015613882578484038952815161386385826137fe565b945061386e83613812565b925060208a0199505060018101905061384a565b50829750879550505050505092915050565b600060208201905081810360008301526138ae818461381f565b905092915050565b60006020820190506138cb6000830184613534565b92915050565b600080600080608085870312156138eb576138ea612f3b565b5b60006138f9878288016131fd565b945050602085013567ffffffffffffffff81111561391a57613919612f40565b5b6139268782880161305d565b935050604085013567ffffffffffffffff81111561394757613946612f40565b5b6139538782880161305d565b925050606085013567ffffffffffffffff81111561397457613973612f40565b5b6139808782880161305d565b91505092959194509250565b61399581613232565b82525050565b600060c08201905081810360008301526139b581896134fb565b905081810360208301526139c981886134fb565b90506139d8604083018761398c565b81810360608301526139ea81866134fb565b905081810360808301526139fe81856134fb565b9050613a0d60a0830184613534565b979650505050505050565b600060208284031215613a2e57613a2d612f3b565b5b600082013567ffffffffffffffff811115613a4c57613a4b612f40565b5b613a588482850161305d565b91505092915050565b600081905092915050565b6000613a7782613333565b613a818185613a61565b9350613a9181856020860161334f565b80840191505092915050565b6000613aa98284613a6c565b915081905092915050565b7f5075626c696320636f646520616c726561647920757365640000000000000000600082015250565b6000613aea6018836134ea565b9150613af582613ab4565b602082019050919050565b60006020820190508181036000830152613b1981613add565b9050919050565b7f4e487b7100000000000000000000000000000000000000000000000000000000600052601160045260246000fd5b6000613b5a826131dc565b91507fffffffffffffffffffffffffffffffffffffffffffffffffffffffffffffffff8203613b8c57613b8b613b20565b5b600182019050919050565b7f4e487b7100000000000000000000000000000000000000000000000000000000600052602260045260246000fd5b60006002820490506001821680613bde57607f821691505b602082108103613bf157613bf0613b97565b5b50919050565b60008190508160005260206000209050919050565b60006020601f8301049050919050565b600082821b905092915050565b600060088302613c597fffffffffffffffffffffffffffffffffffffffffffffffffffffffffffffffff82613c1c565b613c638683613c1c565b95508019841693508086168417925050509392505050565b6000819050919050565b6000613ca0613c9b613c96846131dc565b613c7b565b6131dc565b9050919050565b6000819050919050565b613cba83613c85565b613cce613cc682613ca7565b848454613c29565b825550505050565b600090565b613ce3613cd6565b613cee818484613cb1565b505050565b5b81811015613d1257613d07600082613cdb565b600181019050613cf4565b5050565b601f821115613d5757613d2881613bf7565b613d3184613c0c565b81016020851015613d40578190505b613d54613d4c85613c0c565b830182613cf3565b50505b505050565b600082821c905092915050565b6000613d7a60001984600802613d5c565b1980831691505092915050565b6000613d938383613d69565b9150826002028217905092915050565b613dac82613333565b67ffffffffffffffff811115613dc557613dc4612f60565b5b613dcf8254613bc6565b613dda828285613d16565b600060209050601f831160018114613e0d5760008415613dfb578287015190505b613e058582613d87565b865550613e6d565b601f198416613e1b86613bf7565b60005b82811015613e4357848901518255600182019150602085019450602081019050613e1e565b86831015613e605784890151613e5c601f891682613d69565b8355505b6001600288020188555050505b505050505050565b7f4e487b7100000000000000000000000000000000000000000000000000000000600052602160045260246000fd5b6000604082019050613eb9600083018561398c565b8181036020830152613ecb81846134fb565b90509392505050565b7f4e6f74206368616972706572736f6e0000000000000000000000000000000000600082015250565b6000613f0a600f836134ea565b9150613f1582613ed4565b602082019050919050565b60006020820190508181036000830152613f3981613efd565b9050919050565b7f57726f6e67207068617365000000000000000000000000000000000000000000600082015250565b6000613f76600b836134ea565b9150613f8182613f40565b602082019050919050565b60006020820190508181036000830152613fa581613f69565b9050919050565b7f4e487b7100000000000000000000000000000000000000000000000000000000600052603260045260246000fd5b7f566f74696e670000000000000000000000000000000000000000000000000000600082015250565b60006140116006836134ea565b915061401c82613fdb565b602082019050919050565b6000602082019050818103600083015261404081614004565b9050919050565b7f456c656374696f6e206e6f7420656e6465640000000000000000000000000000600082015250565b600061407d6012836134ea565b915061408882614047565b602082019050919050565b600060208201905081810360008301526140ac81614070565b9050919050565b7f496e76616c69642063616e646964617465204944000000000000000000000000600082015250565b60006140e96014836134ea565b91506140f4826140b3565b602082019050919050565b60006020820190508181036000830152614118816140dc565b9050919050565b7f456e646564000000000000000000000000000000000000000000000000000000600082015250565b60006141556005836134ea565b91506141608261411f565b602082019050919050565b6000602082019050818103600083015261418481614148565b9050919050565b7f416c726561647920726567697374657265640000000000000000000000000000600082015250565b60006141c16012836134ea565b91506141cc8261418b565b602082019050919050565b600060208201905081810360008301526141f0816141b4565b9050919050565b7f4368616972706572736f6e2063616e277420617070726f7665207468656d736560008201527f6c76657300000000000000000000000000000000000000000000000000000000602082015250565b60006142536024836134ea565b915061425e826141f7565b604082019050919050565b6000602082019050818103600083015261428281614246565b9050919050565b6000614294826131dc565b915061429f836131dc565b92508282039050818111156142b7576142b6613b20565b5b92915050565b7f4e487b7100000000000000000000000000000000000000000000000000000000600052603160045260246000fd5b6000602082019050614301600083018461398c565b92915050565b7f496e76616c696420766f74657220616464726573730000000000000000000000600082015250565b600061433d6015836134ea565b915061434882614307565b602082019050919050565b6000602082019050818103600083015261436c81614330565b9050919050565b7f4368616972706572736f6e2063616e6e6f74207265676973746572207468656d60008201527f73656c7665730000000000000000000000000000000000000000000000000000602082015250565b60006143cf6026836134ea565b91506143da82614373565b604082019050919050565b600060208201905081810360008301526143fe816143c2565b9050919050565b7f4368616972706572736f6e2063616e2774207265717565737400000000000000600082015250565b600061443b6019836134ea565b915061444682614405565b602082019050919050565b6000602082019050818103600083015261446a8161442e565b9050919050565b7f416c726561647920726571756573746564000000000000000000000000000000600082015250565b60006144a76011836134ea565b91506144b282614471565b602082019050919050565b600060208201905081810360008301526144d68161449a565b9050919050565b7f4e6f742072656769737465726564000000000000000000000000000000000000600082015250565b6000614513600e836134ea565b915061451e826144dd565b602082019050919050565b6000602082019050818103600083015261454281614506565b9050919050565b7f416c726561647920766f74656400000000000000000000000000000000000000600082015250565b600061457f600d836134ea565b915061458a82614549565b602082019050919050565b600060208201905081810360008301526145ae81614572565b9050919050565b7f496e76616c69642063616e646964617465000000000000000000000000000000600082015250565b60006145eb6011836134ea565b91506145f6826145b5565b602082019050919050565b6000602082019050818103600083015261461a816145de565b9050919050565b7f43616e646964617465206e616d65207265717569726564000000000000000000600082015250565b60006146576017836134ea565b915061466282614621565b602082019050919050565b600060208201905081810360008301526146868161464a565b9050919050565b7f53796d626f6c2072657175697265640000000000000000000000000000000000600082015250565b60006146c3600f836134ea565b91506146ce8261468d565b602082019050919050565b600060208201905081810360008301526146f2816146b6565b9050919050565b600060408201905061470e6000830185613534565b818103602083015261472081846134fb565b9050939250505056fea26469706673582212205bbf03ed64217f07ec138c2c7c76f55a1579f680f5df70959a1da7f0e454e8eb64736f6c63430008130033",
  "linkReferences": {},
  "deployedLinkReferences": {}
}